:1000000024C048C047C046C045C027C743C042C0FF
:1000100041C040C03FC03EC03DC03CC03BC01F1CB3
:100020001F1E1F1E1F1F1E1F1E1F01020000040097
:100030000102040810200202020202020000000075
:100040003800000000003700060111241FBECFE574
:10005000D2E0DEBFCDBF10E0A0E6B0E0E2EBF2E11F
:1000600002C005900D92A837B107D9F720E0A8E7A4
:10007000B0E001C01D92AB3BB207E1F710E0CAE46B
:10008000D0E003C02297FE010ED9C834D107D1F7C2
:10009000D2D80DC9B5CF20E042E060E18FE790E013
:1000A00041D318D167E08FE790E0C5C169E670E001
:1000B0008FE790E04FC8FF920F931F93CF93DF938A
:1000C00000D000D000D0CDB7DEB740E050E0BA019C
:1000D000CE010196A4D000D129833A834B835C835F
:1000E0006D837E8310917800150F183108F0185138
:1000F000FD800E8140E060E08FE790E0DCD21A30B6
:1001000008F4D4DF4AE050E0612F8FE790E087D811
:100110006BE670E08FE790E01DD889E08F1508F05E
:10012000C5DF4AE050E06F2D8FE790E078D86BE6AE
:1001300070E08FE790E00ED80A3008F4B7DF4AE0AD
:1001400050E0602F8FE790E06AD88FE790E0B1D35E
:100150008823F9F083FF05C0909178009F5F90930A
:10016000780082FF05C090917800915090937800BC
:1001700080FF0FC080916000882319F0109260000A
:1001800003C087E080936000609160008FE790E09B
:1001900052D141E060E08FE790E08DD28A818A30D1
:1001A00008F484DF4AE050E06A818FE790E037D8B6
:1001B0006DE670E08FE790E0CDD78B818A3008F450
:1001C00075DF4AE050E06B818FE790E028D86DE65C
:1001D00070E08FE790E0BED7698170E06053784FA0
:1001E0004AE050E08FE790E020D868EE73E080E0CE
:1001F00090E0A1D626960FB6F894DEBF0FBECDBF15
:10020000DF91CF911F910F91FF9008958FE790E0BC
:10021000E7D040E050E0BA0189E790E000C0CF921B
:10022000DF92EF92FF92CF93DF93EC01405853445B
:100230006D467843ECE3CE2ED12CE12CF12CCB0192
:10024000BA01A70196010BD86D83CA01B901A701B4
:10025000960105D86C83CA01B90128E130E040E07D
:1002600050E0FDD76B83188243E95EEFE8818E2F63
:100270008370A1E009F0A0E08A2F90E0BC016359EF
:100280007E4F2617370740F0BA01681B790B260FFF
:10029000371FEF5FE883EACF81E089838981E82F08
:1002A000F0E0E35EFF4FE491AA2319F0823009F4F5
:1002B000EF5FF0E02E173F0720F02E1B3F0B8F5F04
:1002C000ECCF2F5F2A83DF91CF91FF90EF90DF90EB
:1002D000CF90089581E00895FF920F931F93CF93DD
:1002E000DF93CDB7DEB728970FB6F894DEBF0FBE09
:1002F000CDBF68E68BE990E08ED460E08BE990E0BA
:1003000090D48BE990E0B4D447E068E68BE990E0C4
:10031000B1D48BE990E0C3D4782F7F77872F829573
:100320008F706AEF93D7780F8BE990E07887B7D416
:10033000AC019927F4E095958795FA95E1F76AEF76
:1003400085D7182F140F8BE990E0A9D4AC01992719
:10035000A4E095958795AA95E1F76AEF77D7082FDE
:10036000040F8BE990E09BD48BE990E098D4AC012A
:100370009927B4E095958795BA95E1F76AEF66D726
:10038000480F8BE990E04F838AD4FC01992724E041
:10039000959587952A95E1F76AEF58D7F82EFE0EC6
:1003A0008BE990E07CD49C01992734E09595879562
:1003B0003A95E1F76AEF4AD7280F3F2D4F81502F2A
:1003C000612F788580E090E028960FB6F894DEBF24
:1003D0000FBECDBFDF91CF911F910F91FF90089578
:1003E000FC011382128283E790E091838083128E56
:1003F000148A8FE084838EE085838DE086838CE091
:1004000087838BE080878AE0818789E082871786EF
:1004100081E0808B82E0818B83E0828B84E0838B20
:100420000895262FFC01328D3F3F11F04B9620C3DB
:10043000642F822F1CC60F931F93CF93DF93062F39
:10044000EC016B9611E062FB442740F9412768E01C
:10045000CE010ED301FB442740F9412767E0CE01CE
:1004600007D3402F4170412766E0CE01DF91CF9145
:100470001F910F91FDC2262FFC01328D3F3F11F0DD
:100480004B9673C2642F822FB9C5CF93DF93EC01D3
:1004900040E06E81C6DF81E090E072D541E06E8180
:1004A000CE01BFDF81E090E06BD540E06E81CE01F0
:1004B000B8DF84E690E0DF91CF9162C5AF92BF9242
:1004C000CF92DF92EF92FF920F931F93CF93DF9320
:1004D000EC018A8DA62EB12C8F3F09F46BC07E01F2
:1004E0008BE1E80EF11CC70187D29C0180E090E00F
:1004F00061E070E0FE01E80FF91FE781CC24C394AE
:10050000D12CAB010E2E02C0440F551F0A94E2F706
:100510004095509524233523A501082E02C05595FA
:1005200047950A94E2F74170552702C0440F551FC2
:10053000EA95E2F7242B352B019684309105D1F60C
:1005400086010E8002C0000F111F0A94E2F7009589
:10055000109502231323B801C7016ED281E090E009
:100560000FD556010E8002C0AA0CBB1C0A94E2F7FC
:10057000A02AB12AB501C7015FD281E090E000D581
:10058000B6010E8002C0660F771F0A94E2F76095ED
:1005900070956A217B21C7014FD284E690E0DF91FC
:1005A000CF911F910F91FF90EF90DF90CF90BF9070
:1005B000AF90E6C400E010E07E01E00EF11E41E0E5
:1005C000F7016781CE0157DFA501002E02C05595C6
:1005D00047950A94E2F74170F7016781CE0121DF68
:1005E0000F5F1F4F0430110539F7CE01DF91CF9116
:1005F0001F910F91FF90EF90DF90CF90BF90AF9041
:1006000044CFCF92DF92EF92FF920F931F93CF933D
:10061000DF938C01C0E0D0E0C62ED12C7801EC0E27
:10062000FD1E41E0F7016781C80125DFA6010C2E00
:1006300002C0559547950A94E2F74170F70167812A
:10064000C801EFDE2196C830D10541F7C801DF911E
:10065000CF911F910F91FF90EF90DF90CF9015CF2A
:100660001F93CF93DF93EC01162F6C81DADE6D813F
:100670006F3F19F040E0CE01D4DE8C89612F84FFFA
:1006800005C0CE01DF91CF911F91BBCF70E054E048
:10069000759567955A95E1F7CE0110DF612FCE0170
:1006A000DF91CF911F910ACF40E0DACF61E0FCDF0C
:1006B00080ED97E065C4CF93DF93CDB7DEB7289781
:1006C0000FB6F894DEBF0FBECDBF28E0E1E6F0E044
:1006D000DE01119601900D922A95E1F7FC01208D23
:1006E000241710F44FEF420FE42FF0E0EE0FFF1F3E
:1006F00021E030E02C0F3D1FE20FF31F2081260F79
:100700002068622F28960FB6F894DEBF0FBECDBFCB
:10071000DF91CF91C9CFFC016589262F2460258BFD
:100720006C60C2CFAF92BF92CF92DF92EF92FF92F6
:100730000F931F93CF93DF93EC01B42EA22E8A8DDB
:100740008F3F41F481E08B1508F050C08C898860A0
:100750008C8B4CC08BE990E05DD28E01055E1F4F03
:10076000C80101D141E068E0C801FFD041E066E086
:10077000C801FBD041E067E0C801F7D067E0CE01D7
:100780005ADE6D81662319F041E0C801EED041E0E8
:100790006C81C801EAD041E06E81C801E6D0E12C4D
:1007A000F12CFE01EE0DFF1D41E06781C801DDD097
:1007B000EFEFEE1AFE0AF4E0EF16F10491F7E12CE8
:1007C000F12C6E01CE0CDF1C40E0F6016785C801FC
:1007D000CCD041E0F6016785C801A5D1FFEFEF1A43
:1007E000FF0A85E0E816F10461F7ACCFB88E198EE8
:1007F000AA2031F0E1E0BE1203C08C8984608C8BAA
:1008000080E593ECBDD340E06C81CE010ADE40E090
:100810006E81CE0106DE6D816F3F19F040E0CE01A2
:1008200000DE6C8964FD16C063E0CE0147DE84E91A
:1008300091E1A6D363E0CE0141DE84E991E1A0D34A
:1008400063E0CE013BDE86E990E09AD362E0CE0120
:1008500035DE11C06062CE0127DF84E991E190D3DB
:100860006C896062CE0120DF86E990E089D36C89D3
:100870006062CE0119DF6C896062CE0115DF84E011
:100880008D8BCE0148DFCE0111DF82E08E8B66E0DA
:10089000CE01DF91CF911F910F91FF90EF90DF90EC
:1008A000CF90BF90AF9000CF41E0DADE81E090E0E2
:1008B0000895DF92EF92FF920F931F93CF93DF93F0
:1008C0008C01C0E0D0E0EFE1DE2E7C018BE1E80E90
:1008D000F11CF801EC0FFD1F6785C7016CD1282FB3
:1008E00030E00C2E02C0220F331F0A94E2F720954D
:1008F00030958D2D90E028233923D22E2196C530B6
:10090000D10539F7822FDF91CF911F910F91FF9081
:10091000EF90DF900895682F8BE990E082C1CF932C
:10092000DF93EC01683008F067E068838BE990E0C2
:1009300071D1688160628BE990E06DD180E0EBDF7E
:100940008FEFE9DF8BE990E093D1688160628BE9FA
:1009500090E061D181E0DFDF8FEFDDDF8BE990E0B8
:10096000DF91CF9185C160E0DACFFF920F931F93A3
:10097000CF93DF93EC01162FF42E6031B8F5683079
:1009800018F0185001E001C000E0688160628BE956
:1009900090E041D1802FBFDF8BE990E069D1688181
:1009A000606241E08BE990E065D18BE990E077D11E
:1009B00021E030E001C0220F1A95EAF7122FF11062
:1009C00002C0182B02C010951823688160628BE961
:1009D00090E021D1802F9FDF812F9DDF8BE990E078
:1009E000DF91CF911F910F91FF9042C1DF91CF9185
:1009F0001F910F91FF900895CF93DF93EC016881D1
:100A000060628BE990E007D182E185DF8BE990E0BD
:100A10002FD16881606242E08BE990E02BD18BE9B5
:100A200090E03DD1C82F8BE990E039D1982F8827ED
:100A30008C2BDF91CF9108951F93CF93DF931F925B
:100A4000CDB7DEB7162FFC01608160628BE990E0C4
:100A50007983E1D082E15FDF812F5DDF7981872FAC
:100A60005ADF8BE990E00F90DF91CF911F9100C189
:100A7000CF92DF92FF920F931F93CF93DF931F923A
:100A8000CDB7DEB76C01162FF42E603108F042C0EE
:100A9000683020F0185025E103E102C024E102E1B2
:100AA000F601608160628BE990E02983B4D02981EE
:100AB000822F31DF8BE990E0DBD0F601608160624C
:100AC00041E08BE990E0D6D08BE990E0E8D0F1E00E
:100AD00021E030E001C0220F1A95EAF7122FFF1231
:100AE00002C0182B02C010951823F60160816062C5
:100AF0008BE990E090D0802F0EDF812F0CDF8BE907
:100B000090E00F90DF91CF911F910F91FF90DF90B8
:100B1000CF90AEC00F90DF91CF911F910F91FF90BA
:100B2000DF90CF900895FF920F931F93CF93DF93A1
:100B3000EC01162FF42E6031C0F5683018F0185013
:100B40000DE001C00CE0688160628BE990E063D049
:100B5000802FE1DE8BE990E08BD06881606241E01C
:100B60008BE990E087D08BE990E099D091E021E08B
:100B700030E001C0220F1A95EAF7122FF91202C0D5
:100B8000182B02C010951823688160628BE990E0F1
:100B900042D0802FC0DE812FBEDE8BE990E0DF9156
:100BA000CF911F910F91FF9063C0DF91CF911F9163
:100BB0000F91FF9008950F931F93CF93DF93EC0154
:100BC000162F603108F5683018F0185003E101C0A5
:100BD00002E1688160628BE990E01DD0802F9BDE8E
:100BE0008BE990E045D06881606241E08BE990E05C
:100BF00041D08BE990E053D0992702C09595879515
:100C00001A95E2F7817001C080E0DF91CF911F91CA
:100C10000F9108954FC010929E00660F60939F0041
:100C20000895E0919E00E23150F4EF5FE0939E0062
:100C3000F0E0E156FF4F608381E090E0089580E0AE
:100C400090E00895CF93C62F60919E006F5F8FE96B
:100C500090E0E8D010929E00882329F0CC2329F060
:100C6000E4D0811102C0CF9130C080E0CF910895CF
:100C700061E0E8CF10929D0040939C00660F616098
:100C800060939F0061E0640F8FE990E0CBD08823F0
:100C900019F0CBD0811101C018C080E00895E09117
:100CA0009D00EF5FE0939D00F0E0E156FF4F8081F3
:100CB00090E00895C09AC29ABA9AB89A8FEF8FB905
:100CC0008AE28DB980EF8EB908958091B1000895C0
:100CD0008EB98BE29AE19A95F1F700C08DB9B29B7B
:100CE000FECF95E19A95F1F700008DB9769BF2CF92
:100CF0008AE18A95F1F700C08FB19FEF9FB9B89A4A
:100D00000895C29AC29BFECF8AE18A95F1F700C08E
:100D1000C09885E18A95F1F70000C298C09A77994A
:100D200005C083E08093B10080E0089581E00895DC
:100D3000AF92BF92CF92DF92EF92FF920F931F93E9
:100D4000CF93DF93EC01C62E8091B1008160809338
:100D5000B100988190FD03C082608093B100D1DF23
:100D6000882309F454C0FC2C8E01BB24BA94AA2415
:100D7000A3942091B1002370C8010196222371F140
:100D8000C298D82EE92EF80180818FB980EFA0DFBC
:100D9000B8988EEF9DDF9091B10080FF0BC0892F36
:100DA000817090FF05C081E08093B10080E02FC08A
:100DB00092E00DC0892F8570843061F48881816054
:100DC0008883A092B1009DDF811118C09AE09093B2
:100DD000B1001DC09E7F9093B10013C0B898D82E6B
:100DE000E92E80EF75DFF8018083F1E0FF1202C089
:100DF000BFB801C01FB88EEF6BDF03C0FC2CDC2E28
:100E0000ED2EFA9419F00D2D1E2DB3CF81E0DF9158
:100E1000CF911F910F91FF90EF90DF90CF90BF90F7
:100E2000AF9008951092B10083CFC098C29AB29B40
:100E3000FECF85E18A95F1F70000C09A8AE18A9594
:100E4000F1F700C09EB1892F807295FD04C094E037
:100E50009093B100089581E008951F920F920FB60C
:100E60000F9211242F933F938F939F93AF93BF9330
:100E70008091B3009091B400A091B500B091B600FC
:100E80003091B20023E0230F2D3720F40196A11DED
:100E9000B11D05C026E8230F0296A11DB11D2093A8
:100EA000B2008093B3009093B400A093B500B093C8
:100EB000B6008091B7009091B800A091B900B091B0
:100EC000BA000196A11DB11D8093B7009093B800A0
:100ED000A093B900B093BA00BF91AF919F918F9149
:100EE0003F912F910F900FBE0F901F9018953FB715
:100EF000F8948091B7009091B800A091B900B0919A
:100F0000BA0022B708B601FE05C02F3F19F00196BE
:100F1000A11DB11D3FBF6627782F892F9A2F620F21
:100F2000711D811D911D42E0660F771F881F991F5B
:100F30004A95D1F70895CF92DF92EF92FF92CF9327
:100F4000DF936B017C01D3DFEB01C114D104E10419
:100F5000F10479F07AD1CBDF6C1B7D0B683E7340D6
:100F6000A0F381E0C81AD108E108F108C851DC4FAC
:100F7000ECCFDF91CF91FF90EF90DF90CF9008956D
:100F8000019739F0880F991F880F991F02970197D1
:100F9000F1F7089578948AB582608ABD8AB5816038
:100FA0008ABD83B7826083BF83B7816083BF89B7FF
:100FB000826089BF80B7826080BF80B7816080BF58
:100FC0008CB580648CBD329A319A309A379A0895E4
:100FD000823081F018F4813051F00895833019F097
:100FE000843009F008958CB58F7D8CBD08958AB545
:100FF0008F7702C08AB58F7D8ABD0895CF93DF9326
:1010000090E0FC01E05DFF4F2491FC01EA5CFF4FA2
:101010008491882349F190E0880F991FFC01EE5BD1
:10102000FF4FA591B491845C9F4FFC01C591D49171
:101030009FB7611108C0F8948C91209582238C93FE
:10104000888182230AC0623051F4F8948C91322F47
:10105000309583238C938881822B888304C0F894F5
:101060008C91822B8C939FBFDF91CF9108950F932A
:101070001F93CF93DF931F92CDB7DEB7282F30E0B9
:10108000F901E65DFF4F8491F901E05DFF4F149196
:10109000F901EA5CFF4F04910023C1F0882319F0A5
:1010A000698396DF6981E02FF0E0EE0FFF1FE45CBB
:1010B000FF4FA591B4919FB7F8948C91611103C033
:1010C0001095812301C0812B8C939FBF0F90DF91DE
:1010D000CF911F910F910895CF92DF92EF92FF92DF
:1010E0000F931F93CF93DF936C017A01EB01E60E10
:1010F000F71E00E010E0CE15DF0561F06991D60122
:10110000ED91FC910190F081E02DC6010995080F49
:10111000191FF1CFC801DF91CF911F910F91FF905F
:10112000EF90DF90CF9008956115710581F0DB019C
:101130000D900020E9F7AD0141505109461B570BB6
:10114000DC01ED91FC910280F381E02D099480E0B7
:1011500090E00895E9CF8F929F92AF92BF92CF9285
:10116000DF92EF92FF920F931F93CF93DF93CDB750
:10117000DEB7A1970FB6F894DEBF0FBECDBF7C01DE
:10118000C42EE52FCB01D22E19A221E02D1510F08F
:101190002AE0D22E8E010F5D1F4F8D2C912CA12C99
:1011A000B12C6C2D7E2FA501940159D08D2D622F6D
:1011B0004DD0C81A8C2D015011098A3014F4805D6D
:1011C00001C0895CF8018083211531054105510575
:1011D00021F0C22EE32FCA01E4CFB801C701A4DF7A
:1011E000A1960FB6F894DEBF0FBECDBFDF91CF91B1
:1011F0001F910F91FF90EF90DF90CF90BF90AF9035
:101200009F908F9008952115310541F4DC01ED91F7
:10121000FC910190F081E02D642F09949CCF9A01FC
:10122000462F50E060E070E0EECF9A01AB0160E045
:1012300070E0E9CF0895AEDEFDDF2DD7C0E0D0E04D
:101240003AD72097E9F3DCD6FBCF0895002480FD40
:10125000060E660F11F08695D1F7802D0895A1E254
:101260001A2EAA1BBB1BFD010DC0AA1FBB1FEE1F20
:10127000FF1FA217B307E407F50720F0A21BB30B6B
:10128000E40BF50B661F771F881F991F1A9469F7E7
:1012900060957095809590959B01AC01BD01CF0143
:1012A0000895EE0FFF1F0590F491E02D0994F89436
:0212B000FFCF6E
:1012B20007000040001400540030003A002F0000E4
:0812C20000000054046C080058
:00000001FF
