:100000001EC042C041C040C03FC037C53DC03CC01B
:100010003BC03AC039C038C037C036C035C0010215
:100020000000040001020408102002020202020281
:100030000000000038000000000037005E001124BE
:100040001FBECFE5D2E0DEBFCDBF10E0A0E6B0E03E
:10005000EEE9FDE002C005900D92A437B107D9F793
:1000600020E0A4E7B0E001C01D92A03BB207E1F799
:1000700010E0CEE3D0E003C02297FE018AD6CC3355
:10008000D107D1F779D689C6BBCF20E042E060E145
:1000900084E790E0B8D164E084E790E03DC040E0C0
:1000A00060E084E790E078D168E670E084E790E073
:1000B00061D668EE73E080E090E04DC584E790E0A3
:1000C00000C0FC011382128280E790E0918380835C
:1000D000128E148A8FE084838EE085838DE0868380
:1000E0008CE087838BE080878AE0818789E0828744
:1000F000178681E0808B82E0818B83E0828B84E0B5
:10010000838B0895262FFC01328D3F3F11F04B96D3
:10011000EEC2642F822FBBC50F931F93CF93DF9343
:10012000062FEC016B9611E062FB442740F9412752
:1001300068E0CE01DCD201FB442740F9412767E0AB
:10014000CE01D5D2402F4170412766E0CE01DF912C
:10015000CF911F910F91CBC2262FFC01328D3F3FD3
:1001600011F04B9641C2642F822F58C5CF93DF9375
:10017000EC0140E06E81C6DF81E090E011D541E006
:100180006E81CE01BFDF81E090E00AD540E06E8154
:10019000CE01B8DF84E690E0DF91CF9101C5AF9248
:1001A000BF92CF92DF92EF92FF920F931F93CF9364
:1001B000DF93EC018A8DA62EB12C8F3F09F46BC022
:1001C0007E018BE1E80EF11CC70155D29C0180E055
:1001D00090E061E070E0FE01E80FF91FE781CC24B8
:1001E000C394D12CAB010E2E02C0440F551F0A94AC
:1001F000E2F74095509524233523A501082E02C02F
:10020000559547950A94E2F74170552702C0440F6F
:10021000551FEA95E2F7242B352B01968430910582
:10022000D1F686010E8002C0000F111F0A94E2F77A
:100230000095109502231323B801C7013CD281E039
:1002400090E0AED456010E8002C0AA0CBB1C0A94EA
:10025000E2F7A02AB12AB501C7012DD281E090E0D2
:100260009FD4B6010E8002C0660F771F0A94E2F792
:10027000609570956A217B21C7011DD284E690E0CC
:10028000DF91CF911F910F91FF90EF90DF90CF9072
:10029000BF90AF9085C400E010E07E01E00EF11E3B
:1002A00041E0F7016781CE0157DFA501002E02C0B2
:1002B000559547950A94E2F74170F7016781CE01A1
:1002C00021DF0F5F1F4F0430110539F7CE01DF9199
:1002D000CF911F910F91FF90EF90DF90CF90BF9043
:1002E000AF9044CFCF92DF92EF92FF920F931F9384
:1002F000CF93DF938C01C0E0D0E0C62ED12C7801E3
:10030000EC0EFD1E41E0F7016781C80125DFA60163
:100310000C2E02C0559547950A94E2F74170F701FB
:100320006781C801EFDE2196C830D10541F7C801C9
:10033000DF91CF911F910F91FF90EF90DF90CF90C1
:1003400015CF1F93CF93DF93EC01162F6C81DADE6C
:100350006D816F3F19F040E0CE01D4DE8C89612FB2
:1003600084FF05C0CE01DF91CF911F91BBCF70E01C
:1003700054E0759567955A95E1F7CE0110DF612F2E
:10038000CE01DF91CF911F910ACF40E0DACF61E03B
:10039000FCDF80ED97E004C4CF93DF93CDB7DEB7E9
:1003A00028970FB6F894DEBF0FBECDBF28E0E0E679
:1003B000F0E0DE01119601900D922A95E1F7FC0123
:1003C000208D241710F44FEF420FE42FF0E0EE0FD2
:1003D000FF1F21E030E02C0F3D1FE20FF31F2081B3
:1003E000260F2068622F28960FB6F894DEBF0FBE46
:1003F000CDBFDF91CF91C9CFFC016589262F246045
:10040000258B6C60C2CFAF92BF92CF92DF92EF92FA
:10041000FF920F931F93CF93DF93EC01B42EA22E84
:100420008A8D8F3F41F481E08B1508F050C08C8994
:1004300088608C8B4CC080E990E0FCD18E01055E19
:100440001F4FC801CFD041E068E0C801CDD041E0E6
:1004500066E0C801C9D041E067E0C801C5D067E0E7
:10046000CE015ADE6D81662319F041E0C801BCD08F
:1004700041E06C81C801B8D041E06E81C801B4D0C0
:10048000E12CF12CFE01EE0DFF1D41E06781C8015A
:10049000ABD0EFEFEE1AFE0AF4E0EF16F10491F79D
:1004A000E12CF12C6E01CE0CDF1C40E0F6016785DB
:1004B000C8019AD041E0F6016785C80173D1FFEF0A
:1004C000EF1AFF0A85E0E816F10461F7ACCFB88EA9
:1004D000198EAA2031F0E1E0BE1203C08C8984603D
:1004E0008C8B80E593EC5CD340E06C81CE010ADE1E
:1004F00040E06E81CE0106DE6D816F3F19F040E075
:10050000CE0100DE6C8964FD16C063E0CE0147DEDB
:1005100084E991E145D363E0CE0141DE84E991E1D4
:100520003FD363E0CE013BDE86E990E039D362E061
:10053000CE0135DE11C06062CE0127DF84E991E192
:100540002FD36C896062CE0120DF86E990E028D34A
:100550006C896062CE0119DF6C896062CE0115DFA3
:1005600084E08D8BCE0148DFCE0111DF82E08E8BDF
:1005700066E0CE01DF91CF911F910F91FF90EF9038
:10058000DF90CF90BF90AF9000CF41E0DADE81E006
:1005900090E00895682F80E990E053C1CF93DF93F6
:1005A000EC01683008F067E0688380E990E042D1B0
:1005B0006881606280E990E03ED180E0EBDF8FEF00
:1005C000E9DF80E990E064D16881606280E990E0D1
:1005D00032D181E0DFDF8FEFDDDF80E990E0DF9176
:1005E000CF9156C160E0DACFFF920F931F93CF9364
:1005F000DF93EC01162FF42E6031B8F5683018F057
:10060000185001E001C000E06881606280E990E07C
:1006100012D1802FBFDF80E990E03AD1688160621B
:1006200041E080E990E036D180E990E048D121E0D6
:1006300030E001C0220F1A95EAF7122FF11002C024
:10064000182B02C0109518236881606280E990E041
:10065000F2D0802F9FDF812F9DDF80E990E0DF9136
:10066000CF911F910F91FF9013C1DF91CF911F91F7
:100670000F91FF900895CF93DF93EC016881606242
:1006800080E990E0D8D082E185DF80E990E000D178
:100690006881606242E080E990E0FCD080E990E00F
:1006A0000ED1C82F80E990E00AD1982F88278C2B93
:1006B000DF91CF9108951F93CF93DF931F92CDB712
:1006C000DEB7162FFC016081606280E990E07983DB
:1006D000B2D082E15FDF812F5DDF7981872F5ADF22
:1006E00080E990E00F90DF91CF911F91D1C0CF9220
:1006F000DF92FF920F931F93CF93DF931F92CDB79B
:10070000DEB76C01162FF42E603108F042C068305D
:1007100020F0185025E103E102C024E102E1F601D6
:100720006081606280E990E0298385D02981822FF1
:1007300031DF80E990E0ACD0F6016081606241E099
:1007400080E990E0A7D080E990E0B9D0F1E021E025
:1007500030E001C0220F1A95EAF7122FFF1202C0F3
:10076000182B02C010951823F6016081606280E9A1
:1007700090E061D0802F0EDF812F0CDF80E990E0C8
:100780000F90DF91CF911F910F91FF90DF90CF904D
:100790007FC00F90DF91CF911F910F91FF90DF905D
:1007A000CF900895FF920F931F93CF93DF93EC01A7
:1007B000162FF42E6031C0F5683018F018500DE097
:1007C00001C00CE06881606280E990E034D0802F45
:1007D000E1DE80E990E05CD06881606241E080E920
:1007E00090E058D080E990E06AD091E021E030E0DC
:1007F00001C0220F1A95EAF7122FF91202C0182B26
:1008000002C0109518236881606280E990E013D0DF
:10081000802FC0DE812FBEDE80E990E0DF91CF9196
:100820001F910F91FF9034C0DF91CF911F910F91D5
:10083000FF9008954FC010929300660F609394004C
:100840000895E0919300E23150F4EF5FE09393005C
:10085000F0E0EC56FF4F608381E090E0089580E087
:1008600090E00895CF93C62F609193006F5F84E965
:1008700090E0E8D010929300882329F0CC2329F04F
:10088000E4D0811102C0CF9130C080E0CF910895B3
:1008900061E0E8CF1092920040939100660F616092
:1008A0006093940061E0640F84E990E0CBD08823EA
:1008B00019F0CBD0811101C018C080E00895E091FB
:1008C0009200EF5FE0939200F0E0EC56FF4F8081E2
:1008D00090E00895C09AC29ABA9AB89A8FEF8FB9E9
:1008E0008AE28DB980EF8EB908958091A6000895AF
:1008F0008EB98BE29AE19A95F1F700C08DB9B29B5F
:10090000FECF95E19A95F1F700008DB9769BF2CF75
:100910008AE18A95F1F700C08FB19FEF9FB9B89A2D
:100920000895C29AC29BFECF8AE18A95F1F700C072
:10093000C09885E18A95F1F70000C298C09A77992E
:1009400005C083E08093A60080E0089581E00895CB
:10095000AF92BF92CF92DF92EF92FF920F931F93CD
:10096000CF93DF93EC01C62E8091A6008160809327
:10097000A600988190FD03C082608093A600D1DF1D
:10098000882309F454C0FC2C8E01BB24BA94AA24F9
:10099000A3942091A6002370C8010196222371F12F
:1009A000C298D82EE92EF80180818FB980EFA0DFA0
:1009B000B8988EEF9DDF9091A60080FF0BC0892F25
:1009C000817090FF05C081E08093A60080E02FC079
:1009D00092E00DC0892F8570843061F48881816038
:1009E0008883A092A6009DDF811118C09AE09093A1
:1009F000A6001DC09E7F9093A60013C0B898D82E65
:100A0000E92E80EF75DFF8018083F1E0FF1202C06C
:100A1000BFB801C01FB88EEF6BDF03C0FC2CDC2E0B
:100A2000ED2EFA9419F00D2D1E2DB3CF81E0DF913C
:100A3000CF911F910F91FF90EF90DF90CF90BF90DB
:100A4000AF9008951092A60083CFC098C29AB29B2F
:100A5000FECF85E18A95F1F70000C09A8AE18A9578
:100A6000F1F700C09EB1892F807295FD04C094E01B
:100A70009093A600089581E008951F920F920FB6FB
:100A80000F9211242F933F938F939F93AF93BF9314
:100A90008091A8009091A900A091AA00B091AB000C
:100AA0003091A70023E0230F2D3720F40196A11DDC
:100AB000B11D05C026E8230F0296A11DB11D20938C
:100AC000A7008093A8009093A900A093AA00B093D8
:100AD000AB008091AC009091AD00A091AE00B091C0
:100AE000AF000196A11DB11D8093AC009093AD00A5
:100AF000A093AE00B093AF00BF91AF919F918F9143
:100B00003F912F910F900FBE0F901F9018953FB7F8
:100B1000F8948091AC009091AD00A091AE00B0919E
:100B2000AF0022B708B601FE05C02F3F19F00196AD
:100B3000A11DB11D3FBF6627782F892F9A2F620F05
:100B4000711D811D911D42E0660F771F881F991F3F
:100B50004A95D1F70895CF92DF92EF92FF92CF930B
:100B6000DF936B017C01D3DFEB01C114D104E104FD
:100B7000F10479F00BD1CBDF6C1B7D0B683E734029
:100B8000A0F381E0C81AD108E108F108C851DC4F90
:100B9000ECCFDF91CF91FF90EF90DF90CF90089551
:100BA000019739F0880F991F880F991F02970197B5
:100BB000F1F7089578948AB582608ABD8AB581601C
:100BC0008ABD83B7826083BF83B7816083BF89B7E3
:100BD000826089BF80B7826080BF80B7816080BF3C
:100BE0008CB580648CBD329A319A309A379A0895C8
:100BF000823081F018F4813051F00895833019F07B
:100C0000843009F008958CB58F7D8CBD08958AB528
:100C10008F7702C08AB58F7D8ABD0895CF93DF9309
:100C200090E0FC01EC5DFF4F2491FC01E65DFF4F7D
:100C30008491882349F190E0880F991FFC01EA5CB8
:100C4000FF4FA591B491805D9F4FFC01C591D49158
:100C50009FB7611108C0F8948C91209582238C93E2
:100C6000888182230AC0623051F4F8948C91322F2B
:100C7000309583238C938881822B888304C0F894D9
:100C80008C91822B8C939FBFDF91CF9108950F930E
:100C90001F93CF93DF931F92CDB7DEB7282F30E09D
:100CA000F901E25EFF4F8491F901EC5DFF4F149171
:100CB000F901E65DFF4F04910023C1F0882319F08C
:100CC000698396DF6981E02FF0E0EE0FFF1FE05DA2
:100CD000FF4FA591B4919FB7F8948C91611103C017
:100CE0001095812301C0812B8C939FBF0F90DF91C2
:100CF000CF911F910F910895CF92DF92EF92FF92C3
:100D00000F931F93CF93DF936C017A01EB01E60EF3
:100D1000F71E00E010E0CE15DF0561F06991D60105
:100D2000ED91FC910190F081E02DC6010995080F2D
:100D3000191FF1CFC801DF91CF911F910F91FF9043
:100D4000EF90DF90CF9008956115710581F0DB0180
:100D50000D900020E9F7AD0141505109461B570B9A
:100D6000DC01ED91FC910280F381E02D099480E09B
:100D700090E00895E9CF08951DDFFDDF86D9C0E03A
:100D8000D0E08DD92097E9F33BD9FBCF0895EE0F42
:0E0D9000FF1F0590F491E02D0994F894FFCF19
:100D9E000000400014005400680030000000000005
:040DAE00C5027C06F8
:00000001FF
